S01500004C696768745F436F6E74726F6C2E73726563D7
S11300004BC0000051C000004FC000004DC00000B4
S11300104BC0000049C0000047C0000045C00000BC
S113002043C0000041C000003FC000003DC00000CC
S11300303BC0000039C0000037C0000035C00000DC
S113004033C0000031C000002FC000002DC00000EC
S11300502BC0000029C0000027C0000025C00000FC
S113006023C0000035C000001FC000001DC00000F8
S11300701BC0000019C0000017C0000015C000001C
S113008013C0000011C000000FC000000DC000002C
S11300900BC0000009C0000011241FBECFEFD0E246
S11300A0DEBFCDBF13D027C0ABCF81E087B983E3D8
S11300B08093CC0080E98093C90086E08093CA00D5
S11300C081E284BD8DE085BD78940895EEDFFFCF95
S11300D01F920F920FB60F9211248F938091C80034
S11300E088231CF48091CE0087BD8F910F900FBEA2
S10D00F00F901F901895F894FFCFAD
S9030000FC
